[

["The following are deserialized transactions which are invalid."],
["They are in the form"],
["[[[prevout hash, prevout index, prevout scriptPubKey], [input 2], ...],"],
["serializedTransaction, verifyFlags]"],
["Objects that are only a single string (like this one) are ignored"],

["Unknown witness program version (with DISCOURAGE_UPGRADABLE_WITNESS_PROGRAM)"],
[[["0000000000000000000000000000000000000000000000000000000000000100", 0, "0x51", 1000],
["0000000000000000000000000000000000000000000000000000000000000100", 1, "0x60 0x14 0x4c9c3dfac4207d5d8cb89df5722cb3d712385e3f", 2000],
["0000000000000000000000000000000000000000000000000000000000000100", 2, "0x51", 3000]],
"0100000000010300010000000000000000000000000000000000000000000000000000000000000000000000ffffffff00010000000000000000000000000000000000000000000000000000000000000100000000ffffffff00010000000000000000000000000000000000000000000000000000000000000200000000ffffffff03e8030000000000000151d0070000000000000151b80b00000000000001510002483045022100a3cec69b52cba2d2de623ffffffffff1606184ea55476c0f8189fda231bc9cbb022003181ad597f7c380a7d1c740286b1d022b8b04ded028b833282e055e03b8efef812103596d3451025c19dbbdeb932d6bf8bfb4ad499b95b6f88db8899efac102e5fc710000000000", "P2SH,WITNESS,DISCOURAGE_UPGRADABLE_WITNESS_PROGRAM"],
 ["Unknown length for witness program v0"],
[[["0000000000000000000000000000000000000000000000000000000000000100", 0, "0x51", 1000],
["0000000000000000000000000000000000000000000000000000000000000100", 1, "0x00 0x15 0x4c9c3dfac4207d5d8cb89df5722cb3d712385e3fff", 2000],
["0000000000000000000000000000000000000000000000000000000000000100", 2, "0x51", 3000]],
"0100000000010300010000000000000000000000000000000000000000000000000000000000000000000000ffffffff00010000000000000000000000000000000000000000000000000000000000000100000000ffffffff00010000000000000000000000000000000000000000000000000000000000000200000000ffffffff04b60300000000000001519e070000000000000151860b0000000000000100960000000000000001510002473044022022fceb54f62f8feea77faac7083c3b56c4676a78f93745adc8a35800bc36adfa022026927df9abcf0a8777829bcfcce3ff0a385fa54c3f9df577405e3ef24ee56479022103596d3451025c19dbbdeb932d6bf8bfb4ad499b95b6f88db8899efac102e5fc710000000000", "P2SH,WITNESS"],
 ["Witness with SigHash Single|AnyoneCanPay (same index output value changed)"],
[[["0000000000000000000000000000000000000000000000000000000000000100", 0, "0x51", 1000],
["0000000000000000000000000000000000000000000000000000000000000100", 1, "0x00 0x14 0x4c9c3dfac4207d5d8cb89df5722cb3d712385e3f", 2000],
["0000000000000000000000000000000000000000000000000000000000000100", 2, "0x51", 3000]],
"0100000000010300010000000000000000000000000000000000000000000000000000000000000000000000ffffffff00010000000000000000000000000000000000000000000000000000000000000100000000ffffffff00010000000000000000000000000000000000000000000000000000000000000200000000ffffffff03e80300000000000001516c070000000000000151b80b0000000000000151000248304502210092f4777a0f17bf5aeb8ae768dec5f2c14feabf9d1fe2c89c78dfed0f13fdb86902206da90a86042e252bcd1e80a168c719e4a1ddcc3cebea24b9812c5453c79107e9832103596d3451025c19dbbdeb932d6bf8bfb4ad499b95b6f88db8899efac102e5fc710000000000", "P2SH,WITNESS"],
 ["Witness with SigHash None|AnyoneCanPay (input sequence changed)"],
[[["0000000000000000000000000000000000000000000000000000000000000100", 0, "0x51", 1000],
["0000000000000000000000000000000000000000000000000000000000000100", 1, "0x00 0x14 0x4c9c3dfac4207d5d8cb89df5722cb3d712385e3f", 2000],
["0000000000000000000000000000000000000000000000000000000000000100", 2, "0x51", 3000]],
"0100000000010300010000000000000000000000000000000000000000000000000000000000000000000000ffffffff000100000000000000000000000000000000000000000000000000000000000001000000000100000000010000000000000000000000000000000000000000000000000000000000000200000000ffffffff00000248304502210091b32274295c2a3fa02f5bce92fb2789e3fc6ea947fbe1a76e52ea3f4ef2381a022079ad72aefa3837a2e0c033a8652a59731da05fa4a813f4fc48e87c075037256b822103596d3451025c19dbbdeb932d6bf8bfb4ad499b95b6f88db8899efac102e5fc710000000000", "P2SH,WITNESS"],
 ["Witness with SigHash All|AnyoneCanPay (third output value changed)"],
[[["0000000000000000000000000000000000000000000000000000000000000100", 0, "0x51", 1000],
["0000000000000000000000000000000000000000000000000000000000000100", 1, "0x00 0x14 0x4c9c3dfac4207d5d8cb89df5722cb3d712385e3f", 2000],
["0000000000000000000000000000000000000000000000000000000000000100", 2, "0x51", 3000]],
"0100000000010300010000000000000000000000000000000000000000000000000000000000000000000000ffffffff00010000000000000000000000000000000000000000000000000000000000000100000000ffffffff00010000000000000000000000000000000000000000000000000000000000000200000000ffffffff03e8030000000000000151d0070000000000000151540b00000000000001510002483045022100a3cec69b52cba2d2de623eeef89e0ba1606184ea55476c0f8189fda231bc9cbb022003181ad597f7c380a7d1c740286b1d022b8b04ded028b833282e055e03b8efef812103596d3451025c19dbbdeb932d6bf8bfb4ad499b95b6f88db8899efac102e5fc710000000000", "P2SH,WITNESS"],
 ["Witness with a push of 521 bytes"],
[[["0000000000000000000000000000000000000000000000000000000000000100", 0, "0x00 0x20 0x33198a9bfef674ebddb9ffaa52928017b8472791e54c609cb95f278ac6b1e349", 1000]],
"0100000000010100010000000000000000000000000000000000000000000000000000000000000000000000ffffffff010000000000000000015102fd0902000000000000000000000000000000000000000000000000000000000000000000000000000000000000000000000000000000000000000000000000000000000000000000000000000000000000000000000000000000000000000000000000000000000000000000000000000000000000000000000000000000000000000000000000000000000000000000000000000000000000000000000000000000000000000000000000000000000000000000000000000000000000000000000000000000000000000000000000000000000000000000000000000000000000000000000000000000000000000000000000000000000000000000000000000000000000000000000000000000000000000000000000000000000000000000000000000000000000000000000000000000000000000000000000000000000000000000000000000000000000000000000000000000000000000000000000000000000000000000000000000000000000000000000000000000000000000000000000000000000000000000000000000000000000000000000000000000000000000000000000000000000000000000000000000000000000000000000000000000000000000000000000000000000000000000000000000000000000000000000000000000000000000000000000000000000000000000000000000000000000000000000000000000000002755100000000", "P2SH,WITNESS"],
 ["Witness with unknown version which push false on the stack should be invalid (even without DISCOURAGE_UPGRADABLE_WITNESS_PROGRAM)"],
[[["0000000000000000000000000000000000000000000000000000000000000100", 0, "0x60 0x02 0x0000", 2000]],
"0100000000010100010000000000000000000000000000000000000000000000000000000000000000000000ffffffff010000000000000000015101010100000000", "P2SH,WITNESS"],
 ["Witness program should leave clean stack"],
[[["0000000000000000000000000000000000000000000000000000000000000100", 0, "0x00 0x20 0x2f04a3aa051f1f60d695f6c44c0c3d383973dfd446ace8962664a76bb10e31a8", 2000]],
"0100000000010100010000000000000000000000000000000000000000000000000000000000000000000000ffffffff01000000000000000001510102515100000000", "P2SH,WITNESS"],
 ["Witness v0 with a push of 2 bytes"],
[[["0000000000000000000000000000000000000000000000000000000000000100", 0, "0x00 0x02 0x0001", 2000]],
"0100000000010100010000000000000000000000000000000000000000000000000000000000000000000000ffffffff010000000000000000015101040002000100000000", "P2SH,WITNESS"],
 ["Unknown witness version with non empty scriptSig"],
[[["0000000000000000000000000000000000000000000000000000000000000100", 0, "0x60 0x02 0x0001", 2000]],
"01000000010001000000000000000000000000000000000000000000000000000000000000000000000151ffffffff010000000000000000015100000000", "P2SH,WITNESS"],
 ["Non witness Single|AnyoneCanPay hash input's position (permutation)"],
[[["0000000000000000000000000000000000000000000000000000000000000100", 0, "0x21 0x03596d3451025c19dbbdeb932d6bf8bfb4ad499b95b6f88db8899efac102e5fc71 CHECKSIG", 1000],
["0000000000000000000000000000000000000000000000000000000000000100", 1, "0x21 0x03596d3451025c19dbbdeb932d6bf8bfb4ad499b95b6f88db8899efac102e5fc71 CHECKSIG", 1001]],
"010000000200010000000000000000000000000000000000000000000000000000000000000100000049483045022100acb96cfdbda6dc94b489fd06f2d720983b5f350e31ba906cdbd800773e80b21c02200d74ea5bdf114212b4bbe9ed82c36d2e369e302dff57cb60d01c428f0bd3daab83ffffffff0001000000000000000000000000000000000000000000000000000000000000000000004847304402202a0b4b1294d70540235ae033d78e64b4897ec859c7b6f1b2b1d8a02e1d46006702201445e756d2254b0f1dfda9ab8e1e1bc26df9668077403204f32d16a49a36eb6983ffffffff02e9030000000000000151e803000000000000015100000000", "P2SH,WITNESS"],
 ["P2WSH with a redeem representing a witness scriptPubKey should fail"],
[[["0000000000000000000000000000000000000000000000000000000000000100", 0, "0x00 0x20 0x34b6c399093e06cf9f0f7f660a1abcfe78fcf7b576f43993208edd9518a0ae9b", 1000]],
"0100000000010100010000000000000000000000000000000000000000000000000000000000000000000000ffffffff0001045102010100000000", "P2SH,WITNESS"],
 ["33 bytes push should be considered a witness scriptPubKey"],
[[["0000000000000000000000000000000000000000000000000000000000000100", 0, "0x60 0x21 0xff25429251b5a84f452230a3c75fd886b7fc5a7865ce4a7bb7a9d7c5be6da3dbff", 1000]],
"010000000100010000000000000000000000000000000000000000000000000000000000000000000000ffffffff01e803000000000000015100000000", "P2SH,WITNESS,DISCOURAGE_UPGRADABLE_WITNESS_PROGRAM"]

]
