[

["The following are deserialized transactions which are valid."],
["They are in the form"],
["[[[prevout hash, prevout index, prevout scriptPubKey, amount?], [input 2], ...],"],
["serializedTransaction, verifyFlags]"],
["Objects that are only a single string (like this one) are ignored"],

["Valid P2WPKH (Private key of segwit tests is L5AQtV2HDm4xGsseLokK2VAT2EtYKcTm3c7HwqnJBFt9LdaQULsM)"],
[[["0000000000000000000000000000000000000000000000000000000000000100", 0, "0x00 0x14 0x4c9c3dfac4207d5d8cb89df5722cb3d712385e3f", 1000]],
"0100000000010100010000000000000000000000000000000000000000000000000000000000000000000000ffffffff01e8030000000000001976a9144c9c3dfac4207d5d8cb89df5722cb3d712385e3f88ac02483045022100cfb07164b36ba64c1b1e8c7720a56ad64d96f6ef332d3d37f9cb3c96477dc44502200a464cd7a9cf94cd70f66ce4f4f0625ef650052c7afcfe29d7d7e01830ff91ed012103596d3451025c19dbbdeb932d6bf8bfb4ad499b95b6f88db8899efac102e5fc7100000000", "P2SH,WITNESS"],
 ["Valid P2WSH"],
[[["0000000000000000000000000000000000000000000000000000000000000100", 0, "0x00 0x20 0xff25429251b5a84f452230a3c75fd886b7fc5a7865ce4a7bb7a9d7c5be6da3db", 1000]],
"0100000000010100010000000000000000000000000000000000000000000000000000000000000000000000ffffffff01e8030000000000001976a9144c9c3dfac4207d5d8cb89df5722cb3d712385e3f88ac02483045022100aa5d8aa40a90f23ce2c3d11bc845ca4a12acd99cbea37de6b9f6d86edebba8cb022022dedc2aa0a255f74d04c0b76ece2d7c691f9dd11a64a8ac49f62a99c3a05f9d01232103596d3451025c19dbbdeb932d6bf8bfb4ad499b95b6f88db8899efac102e5fc71ac00000000", "P2SH,WITNESS"],
 ["Valid P2SH(P2WPKH)"],
[[["0000000000000000000000000000000000000000000000000000000000000100", 0, "HASH160 0x14 0xfe9c7dacc9fcfbf7e3b7d5ad06aa2b28c5a7b7e3 EQUAL", 1000]],
"01000000000101000100000000000000000000000000000000000000000000000000000000000000000000171600144c9c3dfac4207d5d8cb89df5722cb3d712385e3fffffffff01e8030000000000001976a9144c9c3dfac4207d5d8cb89df5722cb3d712385e3f88ac02483045022100cfb07164b36ba64c1b1e8c7720a56ad64d96f6ef332d3d37f9cb3c96477dc44502200a464cd7a9cf94cd70f66ce4f4f0625ef650052c7afcfe29d7d7e01830ff91ed012103596d3451025c19dbbdeb932d6bf8bfb4ad499b95b6f88db8899efac102e5fc7100000000", "P2SH,WITNESS"],
 ["Valid P2SH(P2WSH)"],
[[["0000000000000000000000000000000000000000000000000000000000000100", 0, "HASH160 0x14 0x2135ab4f0981830311e35600eebc7376dce3a914 EQUAL", 1000]],
"0100000000010100010000000000000000000000000000000000000000000000000000000000000000000023220020ff25429251b5a84f452230a3c75fd886b7fc5a7865ce4a7bb7a9d7c5be6da3dbffffffff01e8030000000000001976a9144c9c3dfac4207d5d8cb89df5722cb3d712385e3f88ac02483045022100aa5d8aa40a90f23ce2c3d11bc845ca4a12acd99cbea37de6b9f6d86edebba8cb022022dedc2aa0a255f74d04c0b76ece2d7c691f9dd11a64a8ac49f62a99c3a05f9d01232103596d3451025c19dbbdeb932d6bf8bfb4ad499b95b6f88db8899efac102e5fc71ac00000000", "P2SH,WITNESS"],
 ["Witness with SigHash Single|AnyoneCanPay"],
[[["0000000000000000000000000000000000000000000000000000000000000100", 0, "0x51", 1100],
["0000000000000000000000000000000000000000000000000000000000000100", 1, "0x00 0x14 0x4c9c3dfac4207d5d8cb89df5722cb3d712385e3f", 2000],
["0000000000000000000000000000000000000000000000000000000000000100", 2, "0x51", 3100],
["0000000000000000000000000000000000000000000000000000000000000100", 3, "0x51", 4100]],
"0100000000010400010000000000000000000000000000000000000000000000000000000000000200000000ffffffff00010000000000000000000000000000000000000000000000000000000000000100000000ffffffff00010000000000000000000000000000000000000000000000000000000000000000000000ffffffff00010000000000000000000000000000000000000000000000000000000000000300000000ffffffff05540b0000000000000151d0070000000000000151840300000000000001513c0f00000000000001512c010000000000000151000248304502210092f4777a0f17bf5aeb8ae768dec5f2c14feabf9d1fe2c89c78dfed0f13fdb86902206da90a86042e252bcd1e80a168c719e4a1ddcc3cebea24b9812c5453c79107e9832103596d3451025c19dbbdeb932d6bf8bfb4ad499b95b6f88db8899efac102e5fc71000000000000", "P2SH,WITNESS"],
 ["Witness with SigHash Single|AnyoneCanPay (same signature as previous)"],
[[["0000000000000000000000000000000000000000000000000000000000000100", 0, "0x51", 1000],
["0000000000000000000000000000000000000000000000000000000000000100", 1, "0x00 0x14 0x4c9c3dfac4207d5d8cb89df5722cb3d712385e3f", 2000],
["0000000000000000000000000000000000000000000000000000000000000100", 2, "0x51", 3000]],
"0100000000010300010000000000000000000000000000000000000000000000000000000000000000000000ffffffff00010000000000000000000000000000000000000000000000000000000000000100000000ffffffff00010000000000000000000000000000000000000000000000000000000000000200000000ffffffff03e8030000000000000151d0070000000000000151b80b0000000000000151000248304502210092f4777a0f17bf5aeb8ae768dec5f2c14feabf9d1fe2c89c78dfed0f13fdb86902206da90a86042e252bcd1e80a168c719e4a1ddcc3cebea24b9812c5453c79107e9832103596d3451025c19dbbdeb932d6bf8bfb4ad499b95b6f88db8899efac102e5fc710000000000", "P2SH,WITNESS"],
 ["Witness with SigHash Single"],
[[["0000000000000000000000000000000000000000000000000000000000000100", 0, "0x51", 1000],
["0000000000000000000000000000000000000000000000000000000000000100", 1, "0x00 0x14 0x4c9c3dfac4207d5d8cb89df5722cb3d712385e3f", 2000],
["0000000000000000000000000000000000000000000000000000000000000100", 2, "0x51", 3000]],
"0100000000010300010000000000000000000000000000000000000000000000000000000000000000000000ffffffff00010000000000000000000000000000000000000000000000000000000000000100000000ffffffff00010000000000000000000000000000000000000000000000000000000000000200000000ffffffff0484030000000000000151d0070000000000000151540b0000000000000151c800000000000000015100024730440220699e6b0cfe015b64ca3283e6551440a34f901ba62dd4c72fe1cb815afb2e6761022021cc5e84db498b1479de14efda49093219441adc6c543e5534979605e273d80b032103596d3451025c19dbbdeb932d6bf8bfb4ad499b95b6f88db8899efac102e5fc710000000000", "P2SH,WITNESS"],
 ["Witness with SigHash Single (same signature as previous)"],
[[["0000000000000000000000000000000000000000000000000000000000000100", 0, "0x51", 1000],
["0000000000000000000000000000000000000000000000000000000000000100", 1, "0x00 0x14 0x4c9c3dfac4207d5d8cb89df5722cb3d712385e3f", 2000],
["0000000000000000000000000000000000000000000000000000000000000100", 2, "0x51", 3000]],
"0100000000010300010000000000000000000000000000000000000000000000000000000000000000000000ffffffff00010000000000000000000000000000000000000000000000000000000000000100000000ffffffff00010000000000000000000000000000000000000000000000000000000000000200000000ffffffff03e8030000000000000151d0070000000000000151b80b000000000000015100024730440220699e6b0cfe015b64ca3283e6551440a34f901ba62dd4c72fe1cb815afb2e6761022021cc5e84db498b1479de14efda49093219441adc6c543e5534979605e273d80b032103596d3451025c19dbbdeb932d6bf8bfb4ad499b95b6f88db8899efac102e5fc710000000000", "P2SH,WITNESS"],
 ["Witness with SigHash None|AnyoneCanPay"],
[[["0000000000000000000000000000000000000000000000000000000000000100", 0, "0x51", 1100],
["0000000000000000000000000000000000000000000000000000000000000100", 1, "0x00 0x14 0x4c9c3dfac4207d5d8cb89df5722cb3d712385e3f", 2000],
["0000000000000000000000000000000000000000000000000000000000000100", 2, "0x51", 3100],
["0000000000000000000000000000000000000000000000000000000000000100", 3, "0x51", 4100]],
"0100000000010400010000000000000000000000000000000000000000000000000000000000000200000000ffffffff00010000000000000000000000000000000000000000000000000000000000000000000000ffffffff00010000000000000000000000000000000000000000000000000000000000000100000000ffffffff00010000000000000000000000000000000000000000000000000000000000000300000000ffffffff04b60300000000000001519e070000000000000151860b00000000000001009600000000000000015100000248304502210091b32274295c2a3fa02f5bce92fb2789e3fc6ea947fbe1a76e52ea3f4ef2381a022079ad72aefa3837a2e0c033a8652a59731da05fa4a813f4fc48e87c075037256b822103596d3451025c19dbbdeb932d6bf8bfb4ad499b95b6f88db8899efac102e5fc710000000000", "P2SH,WITNESS"],
 ["Witness with SigHash None|AnyoneCanPay (same signature as previous)"],
[[["0000000000000000000000000000000000000000000000000000000000000100", 0, "0x51", 1000],
["0000000000000000000000000000000000000000000000000000000000000100", 1, "0x00 0x14 0x4c9c3dfac4207d5d8cb89df5722cb3d712385e3f", 2000],
["0000000000000000000000000000000000000000000000000000000000000100", 2, "0x51", 3000]],
"0100000000010300010000000000000000000000000000000000000000000000000000000000000000000000ffffffff00010000000000000000000000000000000000000000000000000000000000000100000000ffffffff00010000000000000000000000000000000000000000000000000000000000000200000000ffffffff03e8030000000000000151d0070000000000000151b80b0000000000000151000248304502210091b32274295c2a3fa02f5bce92fb2789e3fc6ea947fbe1a76e52ea3f4ef2381a022079ad72aefa3837a2e0c033a8652a59731da05fa4a813f4fc48e87c075037256b822103596d3451025c19dbbdeb932d6bf8bfb4ad499b95b6f88db8899efac102e5fc710000000000", "P2SH,WITNESS"],
 ["Witness with SigHash None"],
[[["0000000000000000000000000000000000000000000000000000000000000100", 0, "0x51", 1000],
["0000000000000000000000000000000000000000000000000000000000000100", 1, "0x00 0x14 0x4c9c3dfac4207d5d8cb89df5722cb3d712385e3f", 2000],
["0000000000000000000000000000000000000000000000000000000000000100", 2, "0x51", 3000]],
"0100000000010300010000000000000000000000000000000000000000000000000000000000000000000000ffffffff00010000000000000000000000000000000000000000000000000000000000000100000000ffffffff00010000000000000000000000000000000000000000000000000000000000000200000000ffffffff04b60300000000000001519e070000000000000151860b0000000000000100960000000000000001510002473044022022fceb54f62f8feea77faac7083c3b56c4676a78f93745adc8a35800bc36adfa022026927df9abcf0a8777829bcfcce3ff0a385fa54c3f9df577405e3ef24ee56479022103596d3451025c19dbbdeb932d6bf8bfb4ad499b95b6f88db8899efac102e5fc710000000000", "P2SH,WITNESS"],
 ["Witness with SigHash None (same signature as previous)"],
[[["0000000000000000000000000000000000000000000000000000000000000100", 0, "0x51", 1000],
["0000000000000000000000000000000000000000000000000000000000000100", 1, "0x00 0x14 0x4c9c3dfac4207d5d8cb89df5722cb3d712385e3f", 2000],
["0000000000000000000000000000000000000000000000000000000000000100", 2, "0x51", 3000]],
"0100000000010300010000000000000000000000000000000000000000000000000000000000000000000000ffffffff00010000000000000000000000000000000000000000000000000000000000000100000000ffffffff00010000000000000000000000000000000000000000000000000000000000000200000000ffffffff03e8030000000000000151d0070000000000000151b80b00000000000001510002473044022022fceb54f62f8feea77faac7083c3b56c4676a78f93745adc8a35800bc36adfa022026927df9abcf0a8777829bcfcce3ff0a385fa54c3f9df577405e3ef24ee56479022103596d3451025c19dbbdeb932d6bf8bfb4ad499b95b6f88db8899efac102e5fc710000000000", "P2SH,WITNESS"],
 ["Witness with SigHash None (same signature, only sequences changed)"],
[[["0000000000000000000000000000000000000000000000000000000000000100", 0, "0x51", 1000],
["0000000000000000000000000000000000000000000000000000000000000100", 1, "0x00 0x14 0x4c9c3dfac4207d5d8cb89df5722cb3d712385e3f", 2000],
["0000000000000000000000000000000000000000000000000000000000000100", 2, "0x51", 3000]],
"01000000000103000100000000000000000000000000000000000000000000000000000000000000000000000200000000010000000000000000000000000000000000000000000000000000000000000100000000ffffffff000100000000000000000000000000000000000000000000000000000000000002000000000200000003e8030000000000000151d0070000000000000151b80b00000000000001510002473044022022fceb54f62f8feea77faac7083c3b56c4676a78f93745adc8a35800bc36adfa022026927df9abcf0a8777829bcfcce3ff0a385fa54c3f9df577405e3ef24ee56479022103596d3451025c19dbbdeb932d6bf8bfb4ad499b95b6f88db8899efac102e5fc710000000000", "P2SH,WITNESS"],
 ["Witness with SigHash All|AnyoneCanPay"],
[[["0000000000000000000000000000000000000000000000000000000000000100", 0, "0x51", 1100],
["0000000000000000000000000000000000000000000000000000000000000100", 1, "0x00 0x14 0x4c9c3dfac4207d5d8cb89df5722cb3d712385e3f", 2000],
["0000000000000000000000000000000000000000000000000000000000000100", 2, "0x51", 3100],
["0000000000000000000000000000000000000000000000000000000000000100", 3, "0x51", 4100]],
"0100000000010400010000000000000000000000000000000000000000000000000000000000000200000000ffffffff00010000000000000000000000000000000000000000000000000000000000000000000000ffffffff00010000000000000000000000000000000000000000000000000000000000000100000000ffffffff00010000000000000000000000000000000000000000000000000000000000000300000000ffffffff03e8030000000000000151d0070000000000000151b80b0000000000000151000002483045022100a3cec69b52cba2d2de623eeef89e0ba1606184ea55476c0f8189fda231bc9cbb022003181ad597f7c380a7d1c740286b1d022b8b04ded028b833282e055e03b8efef812103596d3451025c19dbbdeb932d6bf8bfb4ad499b95b6f88db8899efac102e5fc710000000000", "P2SH,WITNESS"],
 ["Witness with SigHash All|AnyoneCanPay (same signature as previous)"],
[[["0000000000000000000000000000000000000000000000000000000000000100", 0, "0x51", 1000],
["0000000000000000000000000000000000000000000000000000000000000100", 1, "0x00 0x14 0x4c9c3dfac4207d5d8cb89df5722cb3d712385e3f", 2000],
["0000000000000000000000000000000000000000000000000000000000000100", 2, "0x51", 3000]],
"0100000000010300010000000000000000000000000000000000000000000000000000000000000000000000ffffffff00010000000000000000000000000000000000000000000000000000000000000100000000ffffffff00010000000000000000000000000000000000000000000000000000000000000200000000ffffffff03e8030000000000000151d0070000000000000151b80b00000000000001510002483045022100a3cec69b52cba2d2de623eeef89e0ba1606184ea55476c0f8189fda231bc9cbb022003181ad597f7c380a7d1c740286b1d022b8b04ded028b833282e055e03b8efef812103596d3451025c19dbbdeb932d6bf8bfb4ad499b95b6f88db8899efac102e5fc710000000000", "P2SH,WITNESS"],
 ["Unknown witness program version  (without DISCOURAGE_UPGRADABLE_WITNESS_PROGRAM)"],
[[["0000000000000000000000000000000000000000000000000000000000000100", 0, "0x51", 1000],
["0000000000000000000000000000000000000000000000000000000000000100", 1, "0x60 0x14 0x4c9c3dfac4207d5d8cb89df5722cb3d712385e3f", 2000],
["0000000000000000000000000000000000000000000000000000000000000100", 2, "0x51", 3000]],
"0100000000010300010000000000000000000000000000000000000000000000000000000000000000000000ffffffff00010000000000000000000000000000000000000000000000000000000000000100000000ffffffff00010000000000000000000000000000000000000000000000000000000000000200000000ffffffff03e8030000000000000151d0070000000000000151b80b00000000000001510002483045022100a3cec69b52cba2d2de623ffffffffff1606184ea55476c0f8189fda231bc9cbb022003181ad597f7c380a7d1c740286b1d022b8b04ded028b833282e055e03b8efef812103596d3451025c19dbbdeb932d6bf8bfb4ad499b95b6f88db8899efac102e5fc710000000000", "P2SH,WITNESS"],
 ["Witness with a push of 520 bytes"],
[[["0000000000000000000000000000000000000000000000000000000000000100", 0, "0x00 0x20 0x33198a9bfef674ebddb9ffaa52928017b8472791e54c609cb95f278ac6b1e349", 1000]],
"0100000000010100010000000000000000000000000000000000000000000000000000000000000000000000ffffffff010000000000000000015102fd08020000000000000000000000000000000000000000000000000000000000000000000000000000000000000000000000000000000000000000000000000000000000000000000000000000000000000000000000000000000000000000000000000000000000000000000000000000000000000000000000000000000000000000000000000000000000000000000000000000000000000000000000000000000000000000000000000000000000000000000000000000000000000000000000000000000000000000000000000000000000000000000000000000000000000000000000000000000000000000000000000000000000000000000000000000000000000000000000000000000000000000000000000000000000000000000000000000000000000000000000000000000000000000000000000000000000000000000000000000000000000000000000000000000000000000000000000000000000000000000000000000000000000000000000000000000000000000000000000000000000000000000000000000000000000000000000000000000000000000000000000000000000000000000000000000000000000000000000000000000000000000000000000000000000000000000000000000000000000000000000000000000000000000000000000000000000000000000000000000000000000000000000000000000002755100000000", "P2SH,WITNESS"],
 ["Transaction mixing all SigHash, segwit and normal inputs"],
[[["0000000000000000000000000000000000000000000000000000000000000100", 0, "0x00 0x14 0x4c9c3dfac4207d5d8cb89df5722cb3d712385e3f", 1000],
["0000000000000000000000000000000000000000000000000000000000000100", 1, "0x00 0x14 0x4c9c3dfac4207d5d8cb89df5722cb3d712385e3f", 1001],
["0000000000000000000000000000000000000000000000000000000000000100", 2, "DUP HASH160 0x14 0x4c9c3dfac4207d5d8cb89df5722cb3d712385e3f EQUALVERIFY CHECKSIG", 1002],
["0000000000000000000000000000000000000000000000000000000000000100", 3, "DUP HASH160 0x14 0x4c9c3dfac4207d5d8cb89df5722cb3d712385e3f EQUALVERIFY CHECKSIG", 1003],
["0000000000000000000000000000000000000000000000000000000000000100", 4, "DUP HASH160 0x14 0x4c9c3dfac4207d5d8cb89df5722cb3d712385e3f EQUALVERIFY CHECKSIG", 1004],
["0000000000000000000000000000000000000000000000000000000000000100", 5, "DUP HASH160 0x14 0x4c9c3dfac4207d5d8cb89df5722cb3d712385e3f EQUALVERIFY CHECKSIG", 1005],
["0000000000000000000000000000000000000000000000000000000000000100", 6, "DUP HASH160 0x14 0x4c9c3dfac4207d5d8cb89df5722cb3d712385e3f EQUALVERIFY CHECKSIG", 1006],
["0000000000000000000000000000000000000000000000000000000000000100", 7, "0x00 0x14 0x4c9c3dfac4207d5d8cb89df5722cb3d712385e3f", 1007],
["0000000000000000000000000000000000000000000000000000000000000100", 8, "0x00 0x14 0x4c9c3dfac4207d5d8cb89df5722cb3d712385e3f", 1008],
["0000000000000000000000000000000000000000000000000000000000000100", 9, "0x00 0x14 0x4c9c3dfac4207d5d8cb89df5722cb3d712385e3f", 1009],
["0000000000000000000000000000000000000000000000000000000000000100", 10, "0x00 0x14 0x4c9c3dfac4207d5d8cb89df5722cb3d712385e3f", 1010],
["0000000000000000000000000000000000000000000000000000000000000100", 11, "DUP HASH160 0x14 0x4c9c3dfac4207d5d8cb89df5722cb3d712385e3f EQUALVERIFY CHECKSIG", 1011]],
"0100000000010c00010000000000000000000000000000000000000000000000000000000000000000000000ffffffff00010000000000000000000000000000000000000000000000000000000000000100000000ffffffff0001000000000000000000000000000000000000000000000000000000000000020000006a473044022026c2e65b33fcd03b2a3b0f25030f0244bd23cc45ae4dec0f48ae62255b1998a00220463aa3982b718d593a6b9e0044513fd67a5009c2fdccc59992cffc2b167889f4012103596d3451025c19dbbdeb932d6bf8bfb4ad499b95b6f88db8899efac102e5fc71ffffffff0001000000000000000000000000000000000000000000000000000000000000030000006a4730440220008bd8382911218dcb4c9f2e75bf5c5c3635f2f2df49b36994fde85b0be21a1a02205a539ef10fb4c778b522c1be852352ea06c67ab74200977c722b0bc68972575a012103596d3451025c19dbbdeb932d6bf8bfb4ad499b95b6f88db8899efac102e5fc71ffffffff0001000000000000000000000000000000000000000000000000000000000000040000006b483045022100d9436c32ff065127d71e1a20e319e4fe0a103ba0272743dbd8580be4659ab5d302203fd62571ee1fe790b182d078ecfd092a509eac112bea558d122974ef9cc012c7012103596d3451025c19dbbdeb932d6bf8bfb4ad499b95b6f88db8899efac102e5fc71ffffffff0001000000000000000000000000000000000000000000000000000000000000050000006a47304402200e2c149b114ec546015c13b2b464bbcb0cdc5872e6775787527af6cbc4830b6c02207e9396c6979fb15a9a2b96ca08a633866eaf20dc0ff3c03e512c1d5a1654f148012103596d3451025c19dbbdeb932d6bf8bfb4ad499b95b6f88db8899efac102e5fc71ffffffff0001000000000000000000000000000000000000000000000000000000000000060000006b483045022100b20e70d897dc15420bccb5e0d3e208d27bdd676af109abbd3f88dbdb7721e6d6022005836e663173fbdfe069f54cde3c2decd3d0ea84378092a5d9d85ec8642e8a41012103596d3451025c19dbbdeb932d6bf8bfb4ad499b95b6f88db8899efac102e5fc71ffffffff00010000000000000000000000000000000000000000000000000000000000000700000000ffffffff00010000000000000000000000000000000000000000000000000000000000000800000000ffffffff00010000000000000000000000000000000000000000000000000000000000000900000000ffffffff00010000000000000000000000000000000000000000000000000000000000000a00000000ffffffff00010000000000000000000000000000000000000000000000000000000000000b0000006a47304402206639c6e05e3b9d2675a7f3876286bdf7584fe2bbd15e0ce52dd4e02c0092cdc60220757d60b0a61fc95ada79d23746744c72bac1545a75ff6c2c7cdb6ae04e7e9592012103596d3451025c19dbbdeb932d6bf8bfb4ad499b95b6f88db8899efac102e5fc71ffffffff0ce8030000000000000151e9030000000000000151ea030000000000000151eb030000000000000151ec030000000000000151ed030000000000000151ee030000000000000151ef030000000000000151f0030000000000000151f1030000000000000151f2030000000000000151f30300000000000001510248304502210082219a54f61bf126bfc3fa068c6e33831222d1d7138c6faa9d33ca87fd4202d6022063f9902519624254d7c2c8ea7ba2d66ae975e4e229ae38043973ec707d5d4a83012103596d3451025c19dbbdeb932d6bf8bfb4ad499b95b6f88db8899efac102e5fc7102473044022017fb58502475848c1b09f162cb1688d0920ff7f142bed0ef904da2ccc88b168f02201798afa61850c65e77889cbcd648a5703b487895517c88f85cdd18b021ee246a012103596d3451025c19dbbdeb932d6bf8bfb4ad499b95b6f88db8899efac102e5fc7100000000000247304402202830b7926e488da75782c81a54cd281720890d1af064629ebf2e31bf9f5435f30220089afaa8b455bbeb7d9b9c3fe1ed37d07685ade8455c76472cda424d93e4074a012103596d3451025c19dbbdeb932d6bf8bfb4ad499b95b6f88db8899efac102e5fc7102473044022026326fcdae9207b596c2b05921dbac11d81040c4d40378513670f19d9f4af893022034ecd7a282c0163b89aaa62c22ec202cef4736c58cd251649bad0d8139bcbf55012103596d3451025c19dbbdeb932d6bf8bfb4ad499b95b6f88db8899efac102e5fc71024730440220214978daeb2f38cd426ee6e2f44131a33d6b191af1c216247f1dd7d74c16d84a02205fdc05529b0bc0c430b4d5987264d9d075351c4f4484c16e91662e90a72aab24012103596d3451025c19dbbdeb932d6bf8bfb4ad499b95b6f88db8899efac102e5fc710247304402204a6e9f199dc9672cf2ff8094aaa784363be1eb62b679f7ff2df361124f1dca3302205eeb11f70fab5355c9c8ad1a0700ea355d315e334822fa182227e9815308ee8f012103596d3451025c19dbbdeb932d6bf8bfb4ad499b95b6f88db8899efac102e5fc710000000000", "P2SH,WITNESS"],
 ["Unknown version witness program with empty witness"],
[[["0000000000000000000000000000000000000000000000000000000000000100", 0, "0x60 0x14 0x4c9c3dfac4207d5d8cb89df5722cb3d712385e3f", 1000]],
"010000000100010000000000000000000000000000000000000000000000000000000000000000000000ffffffff01e803000000000000015100000000", "P2SH,WITNESS"],
 ["Witness SIGHASH_SINGLE with output out of bound"],
[[["0000000000000000000000000000000000000000000000000000000000000100", 0, "0x51", 1000],
["0000000000000000000000000000000000000000000000000000000000000100", 1, "0x00 0x20 0x4d6c2a32c87821d68fc016fca70797abdb80df6cd84651d40a9300c6bad79e62", 1000]],
"0100000000010200010000000000000000000000000000000000000000000000000000000000000000000000ffffffff00010000000000000000000000000000000000000000000000000000000000000100000000ffffffff01d00700000000000001510003483045022100e078de4e96a0e05dcdc0a414124dd8475782b5f3f0ed3f607919e9a5eeeb22bf02201de309b3a3109adb3de8074b3610d4cf454c49b61247a2779a0bcbf31c889333032103596d3451025c19dbbdeb932d6bf8bfb4ad499b95b6f88db8899efac102e5fc711976a9144c9c3dfac4207d5d8cb89df5722cb3d712385e3f88ac00000000", "P2SH,WITNESS"],
 ["1 byte push should not be considered a witness scriptPubKey"],
[[["0000000000000000000000000000000000000000000000000000000000000100", 0, "0x60 0x01 0x01", 1000]],
"010000000100010000000000000000000000000000000000000000000000000000000000000000000000ffffffff01e803000000000000015100000000", "P2SH,WITNESS,DISCOURAGE_UPGRADABLE_WITNESS_PROGRAM"],
 ["41 bytes push should not be considered a witness scriptPubKey"],
[[["0000000000000000000000000000000000000000000000000000000000000100", 0, "0x60 0x29 0xff25429251b5a84f452230a3c75fd886b7fc5a7865ce4a7bb7a9d7c5be6da3dbff0000000000000000", 1000]],
"010000000100010000000000000000000000000000000000000000000000000000000000000000000000ffffffff01e803000000000000015100000000", "P2SH,WITNESS,DISCOURAGE_UPGRADABLE_WITNESS_PROGRAM"],
 ["The witness version must use OP_1 to OP_16 only"],
[[["0000000000000000000000000000000000000000000000000000000000000100", 0, "0x01 0x10 0x02 0x0001", 1000]],
"010000000100010000000000000000000000000000000000000000000000000000000000000000000000ffffffff01e803000000000000015100000000", "P2SH,WITNESS,DISCOURAGE_UPGRADABLE_WITNESS_PROGRAM"],
 ["The witness program push must be canonical"],
[[["0000000000000000000000000000000000000000000000000000000000000100", 0, "0x60 0x4c02 0x0001", 1000]],
"010000000100010000000000000000000000000000000000000000000000000000000000000000000000ffffffff01e803000000000000015100000000", "P2SH,WITNESS,DISCOURAGE_UPGRADABLE_WITNESS_PROGRAM"],
 ["Witness Single|AnyoneCanPay does not hash input's position"],
[[["0000000000000000000000000000000000000000000000000000000000000100", 0, "0x00 0x14 0x4c9c3dfac4207d5d8cb89df5722cb3d712385e3f", 1000],
["0000000000000000000000000000000000000000000000000000000000000100", 1, "0x00 0x14 0x4c9c3dfac4207d5d8cb89df5722cb3d712385e3f", 1001]],
"0100000000010200010000000000000000000000000000000000000000000000000000000000000000000000ffffffff00010000000000000000000000000000000000000000000000000000000000000100000000ffffffff02e8030000000000000151e90300000000000001510247304402206d59682663faab5e4cb733c562e22cdae59294895929ec38d7c016621ff90da0022063ef0af5f970afe8a45ea836e3509b8847ed39463253106ac17d19c437d3d56b832103596d3451025c19dbbdeb932d6bf8bfb4ad499b95b6f88db8899efac102e5fc710248304502210085001a820bfcbc9f9de0298af714493f8a37b3b354bfd21a7097c3e009f2018c022050a8b4dbc8155d4d04da2f5cdd575dcf8dd0108de8bec759bd897ea01ecb3af7832103596d3451025c19dbbdeb932d6bf8bfb4ad499b95b6f88db8899efac102e5fc7100000000", "P2SH,WITNESS"],
 ["Witness Single|AnyoneCanPay does not hash input's position (permutation)"],
[[["0000000000000000000000000000000000000000000000000000000000000100", 0, "0x00 0x14 0x4c9c3dfac4207d5d8cb89df5722cb3d712385e3f", 1000],
["0000000000000000000000000000000000000000000000000000000000000100", 1, "0x00 0x14 0x4c9c3dfac4207d5d8cb89df5722cb3d712385e3f", 1001]],
"0100000000010200010000000000000000000000000000000000000000000000000000000000000100000000ffffffff00010000000000000000000000000000000000000000000000000000000000000000000000ffffffff02e9030000000000000151e80300000000000001510248304502210085001a820bfcbc9f9de0298af714493f8a37b3b354bfd21a7097c3e009f2018c022050a8b4dbc8155d4d04da2f5cdd575dcf8dd0108de8bec759bd897ea01ecb3af7832103596d3451025c19dbbdeb932d6bf8bfb4ad499b95b6f88db8899efac102e5fc710247304402206d59682663faab5e4cb733c562e22cdae59294895929ec38d7c016621ff90da0022063ef0af5f970afe8a45ea836e3509b8847ed39463253106ac17d19c437d3d56b832103596d3451025c19dbbdeb932d6bf8bfb4ad499b95b6f88db8899efac102e5fc7100000000", "P2SH,WITNESS"],
 ["Non witness Single|AnyoneCanPay hash input's position"],
[[["0000000000000000000000000000000000000000000000000000000000000100", 0, "0x21 0x03596d3451025c19dbbdeb932d6bf8bfb4ad499b95b6f88db8899efac102e5fc71 CHECKSIG", 1000],
["0000000000000000000000000000000000000000000000000000000000000100", 1, "0x21 0x03596d3451025c19dbbdeb932d6bf8bfb4ad499b95b6f88db8899efac102e5fc71 CHECKSIG", 1001]],
"01000000020001000000000000000000000000000000000000000000000000000000000000000000004847304402202a0b4b1294d70540235ae033d78e64b4897ec859c7b6f1b2b1d8a02e1d46006702201445e756d2254b0f1dfda9ab8e1e1bc26df9668077403204f32d16a49a36eb6983ffffffff00010000000000000000000000000000000000000000000000000000000000000100000049483045022100acb96cfdbda6dc94b489fd06f2d720983b5f350e31ba906cdbd800773e80b21c02200d74ea5bdf114212b4bbe9ed82c36d2e369e302dff57cb60d01c428f0bd3daab83ffffffff02e8030000000000000151e903000000000000015100000000", "P2SH,WITNESS"],
 ["BIP143 examples: details and private keys are available in BIP143"],
["BIP143 example: P2WSH with OP_CODESEPARATOR and out-of-range SIGHASH_SINGLE."],
[[["6eb316926b1c5d567cd6f5e6a84fec606fc53d7b474526d1fff3948020c93dfe", 0, "0x21 0x036d5c20fa14fb2f635474c1dc4ef5909d4568e5569b79fc94d3448486e14685f8 CHECKSIG", 156250000],
["f825690aee1b3dc247da796cacb12687a5e802429fd291cfd63e010f02cf1508", 0, "0x00 0x20 0x5d1b56b63d714eebe542309525f484b7e9d6f686b3781b6f61ef925d66d6f6a0", 4900000000]],
"01000000000102fe3dc9208094f3ffd12645477b3dc56f60ec4fa8e6f5d67c565d1c6b9216b36e000000004847304402200af4e47c9b9629dbecc21f73af989bdaa911f7e6f6c2e9394588a3aa68f81e9902204f3fcf6ade7e5abb1295b6774c8e0abd94ae62217367096bc02ee5e435b67da201ffffffff0815cf020f013ed6cf91d29f4202e8a58726b1ac6c79da47c23d1bee0a6925f80000000000ffffffff0100f2052a010000001976a914a30741f8145e5acadf23f751864167f32e0963f788ac000347304402200de66acf4527789bfda55fc5459e214fa6083f936b430a762c629656216805ac0220396f550692cd347171cbc1ef1f51e15282e837bb2b30860dc77c8f78bc8501e503473044022027dc95ad6b740fe5129e7e62a75dd00f291a2aeb1200b84b09d9e3789406b6c002201a9ecd315dd6a0e632ab20bbb98948bc0c6fb204f2c286963bb48517a7058e27034721026dccc749adc2a9d0d89497ac511f760f45c47dc5ed9cf352a58ac706453880aeadab210255a9626aebf5e29c0e6538428ba0d1dcf6ca98ffdf086aa8ced5e0d0215ea465ac00000000", "P2SH,WITNESS"],
 ["BIP143 example: P2WSH with unexecuted OP_CODESEPARATOR and SINGLE|ANYONECANPAY"],
[[["01c0cf7fba650638e55eb91261b183251fbb466f90dff17f10086817c542b5e9", 0, "0x00 0x20 0xba468eea561b26301e4cf69fa34bde4ad60c81e70f059f045ca9a79931004a4d", 16777215],
["1b2a9a426ba603ba357ce7773cb5805cb9c7c2b386d100d1fc9263513188e680", 0, "0x00 0x20 0xd9bbfbe56af7c4b7f960a70d7ea107156913d9e5a26b0a71429df5e097ca6537", 16777215]],
"01000000000102e9b542c5176808107ff1df906f46bb1f2583b16112b95ee5380665ba7fcfc0010000000000ffffffff80e68831516392fcd100d186b3c2c7b95c80b53c77e77c35ba03a66b429a2a1b0000000000ffffffff0280969800000000001976a914de4b231626ef508c9a74a8517e6783c0546d6b2888ac80969800000000001976a9146648a8cd4531e1ec47f35916de8e259237294d1e88ac02483045022100f6a10b8604e6dc910194b79ccfc93e1bc0ec7c03453caaa8987f7d6c3413566002206216229ede9b4d6ec2d325be245c5b508ff0339bf1794078e20bfe0babc7ffe683270063ab68210392972e2eb617b2388771abe27235fd5ac44af8e61693261550447a4c3e39da98ac024730440220032521802a76ad7bf74d0e2c218b72cf0cbc867066e2e53db905ba37f130397e02207709e2188ed7f08f4c952d9d13986da504502b8c3be59617e043552f506c46ff83275163ab68210392972e2eb617b2388771abe27235fd5ac44af8e61693261550447a4c3e39da98ac00000000", "P2SH,WITNESS"],
 ["BIP143 example: Same as the previous example with input-output paris swapped"],
[[["1b2a9a426ba603ba357ce7773cb5805cb9c7c2b386d100d1fc9263513188e680", 0, "0x00 0x20 0xd9bbfbe56af7c4b7f960a70d7ea107156913d9e5a26b0a71429df5e097ca6537", 16777215],
["01c0cf7fba650638e55eb91261b183251fbb466f90dff17f10086817c542b5e9", 0, "0x00 0x20 0xba468eea561b26301e4cf69fa34bde4ad60c81e70f059f045ca9a79931004a4d", 16777215]],
"0100000000010280e68831516392fcd100d186b3c2c7b95c80b53c77e77c35ba03a66b429a2a1b0000000000ffffffffe9b542c5176808107ff1df906f46bb1f2583b16112b95ee5380665ba7fcfc0010000000000ffffffff0280969800000000001976a9146648a8cd4531e1ec47f35916de8e259237294d1e88ac80969800000000001976a914de4b231626ef508c9a74a8517e6783c0546d6b2888ac024730440220032521802a76ad7bf74d0e2c218b72cf0cbc867066e2e53db905ba37f130397e02207709e2188ed7f08f4c952d9d13986da504502b8c3be59617e043552f506c46ff83275163ab68210392972e2eb617b2388771abe27235fd5ac44af8e61693261550447a4c3e39da98ac02483045022100f6a10b8604e6dc910194b79ccfc93e1bc0ec7c03453caaa8987f7d6c3413566002206216229ede9b4d6ec2d325be245c5b508ff0339bf1794078e20bfe0babc7ffe683270063ab68210392972e2eb617b2388771abe27235fd5ac44af8e61693261550447a4c3e39da98ac00000000", "P2SH,WITNESS"],
 ["BIP143 example: P2SH-P2WSH 6-of-6 multisig signed with 6 different SIGHASH types"],
[[["6eb98797a21c6c10aa74edf29d618be109f48a8e94c694f3701e08ca69186436", 1, "HASH160 0x14 0x9993a429037b5d912407a71c252019287b8d27a5 EQUAL", 987654321]],
"0100000000010136641869ca081e70f394c6948e8af409e18b619df2ed74aa106c1ca29787b96e0100000023220020a16b5755f7f6f96dbd65f5f0d6ab9418b89af4b1f14a1bb8a09062c35f0dcb54ffffffff0200e9a435000000001976a914389ffce9cd9ae88dcc0631e88a821ffdbe9bfe2688acc0832f05000000001976a9147480a33f950689af511e6e84c138dbbd3c3ee41588ac080047304402206ac44d672dac41f9b00e28f4df20c52eeb087207e8d758d76d92c6fab3b73e2b0220367750dbbe19290069cba53d096f44530e4f98acaa594810388cf7409a1870ce01473044022068c7946a43232757cbdf9176f009a928e1cd9a1a8c212f15c1e11ac9f2925d9002205b75f937ff2f9f3c1246e547e54f62e027f64eefa2695578cc6432cdabce271502473044022059ebf56d98010a932cf8ecfec54c48e6139ed6adb0728c09cbe1e4fa0915302e022007cd986c8fa870ff5d2b3a89139c9fe7e499259875357e20fcbb15571c76795403483045022100fbefd94bd0a488d50b79102b5dad4ab6ced30c4069f1eaa69a4b5a763414067e02203156c6a5c9cf88f91265f5a942e96213afae16d83321c8b31bb342142a14d16381483045022100a5263ea0553ba89221984bd7f0b13613db16e7a70c549a86de0cc0444141a407022005c360ef0ae5a5d4f9f2f87a56c1546cc8268cab08c73501d6b3be2e1e1a8a08824730440220525406a1482936d5a21888260dc165497a90a15669636d8edca6b9fe490d309c022032af0c646a34a44d1f4576bf6a4a74b67940f8faa84c7df9abe12a01a11e2b4783cf56210307b8ae49ac90a048e9b53357a2354b3334e9c8bee813ecb98e99a7e07e8c3ba32103b28f0c28bfab54554ae8c658ac5c3e0ce6e79ad336331f78c428dd43eea8449b21034b8113d703413d57761b8b9781957b8c0ac1dfe69f492580ca4195f50376ba4a21033400f6afecb833092a9a21cfdf1ed1376e58c5d1f47de74683123987e967a8f42103a6d48b1131e94ba04d9737d61acdaa1322008af9602b3b14862c07a1789aac162102d8b661b0b3302ee2f162b09e07a55ad5dfbe673a9f01d9f0c19617681024306b56ae00000000", "P2SH,WITNESS"]

]
